{
  "_format": "hh-sol-artifact-1",
  "contractName": "EntityContract",
  "sourceName": "contracts/EntityContract.sol",
  "abi": [
    {
      "inputs": [
        {
          "internalType": "string",
          "name": "_name",
          "type": "string"
        },
        {
          "internalType": "address",
          "name": "_sl1",
          "type": "address"
        },
        {
          "internalType": "address",
          "name": "_sl2",
          "type": "address"
        }
      ],
      "stateMutability": "nonpayable",
      "type": "constructor"
    },
    {
      "anonymous": false,
      "inputs": [
        {
          "indexed": true,
          "internalType": "address",
          "name": "previousOwner",
          "type": "address"
        },
        {
          "indexed": true,
          "internalType": "address",
          "name": "newOwner",
          "type": "address"
        }
      ],
      "name": "OwnershipTransferred",
      "type": "event"
    },
    {
      "inputs": [
        {
          "internalType": "address",
          "name": "_sl",
          "type": "address"
        }
      ],
      "name": "addNewLicenseeSL",
      "outputs": [],
      "stateMutability": "nonpayable",
      "type": "function"
    },
    {
      "inputs": [
        {
          "internalType": "address",
          "name": "_sl",
          "type": "address"
        }
      ],
      "name": "addNewLicensorSL",
      "outputs": [],
      "stateMutability": "nonpayable",
      "type": "function"
    },
    {
      "inputs": [],
      "name": "contactInformation",
      "outputs": [
        {
          "internalType": "string",
          "name": "",
          "type": "string"
        }
      ],
      "stateMutability": "view",
      "type": "function"
    },
    {
      "inputs": [],
      "name": "getActiveLicenseeSLs",
      "outputs": [
        {
          "internalType": "address[]",
          "name": "",
          "type": "address[]"
        }
      ],
      "stateMutability": "view",
      "type": "function"
    },
    {
      "inputs": [],
      "name": "getActiveLicensorSLs",
      "outputs": [
        {
          "internalType": "address[]",
          "name": "",
          "type": "address[]"
        }
      ],
      "stateMutability": "view",
      "type": "function"
    },
    {
      "inputs": [],
      "name": "getTerminatedLicenseeSLs",
      "outputs": [
        {
          "internalType": "address[]",
          "name": "",
          "type": "address[]"
        }
      ],
      "stateMutability": "view",
      "type": "function"
    },
    {
      "inputs": [],
      "name": "getTerminatedLicensorSLs",
      "outputs": [
        {
          "internalType": "address[]",
          "name": "",
          "type": "address[]"
        }
      ],
      "stateMutability": "view",
      "type": "function"
    },
    {
      "inputs": [],
      "name": "name",
      "outputs": [
        {
          "internalType": "string",
          "name": "",
          "type": "string"
        }
      ],
      "stateMutability": "view",
      "type": "function"
    },
    {
      "inputs": [],
      "name": "owner",
      "outputs": [
        {
          "internalType": "address",
          "name": "",
          "type": "address"
        }
      ],
      "stateMutability": "view",
      "type": "function"
    },
    {
      "inputs": [],
      "name": "renounceOwnership",
      "outputs": [],
      "stateMutability": "nonpayable",
      "type": "function"
    },
    {
      "inputs": [
        {
          "internalType": "string",
          "name": "_name",
          "type": "string"
        }
      ],
      "name": "setName",
      "outputs": [],
      "stateMutability": "nonpayable",
      "type": "function"
    },
    {
      "inputs": [
        {
          "internalType": "address",
          "name": "newOwner",
          "type": "address"
        }
      ],
      "name": "transferOwnership",
      "outputs": [],
      "stateMutability": "nonpayable",
      "type": "function"
    }
  ],
  "bytecode": "0x60806040523480156200001157600080fd5b50604051620020a2380380620020a28339818101604052810190620000379190620003f4565b620000576200004b620001ef60201b60201c565b620001f760201b60201c565b82600190805190602001906200006f929190620002bb565b506003829080600181540180825580915050600190039060005260206000200160009091909190916101000a81548173ffffffffffffffffffffffffffffffffffffffff021916908373ffffffffffffffffffffffffffffffffffffffff1602179055506001600560008473ffffffffffffffffffffffffffffffffffffffff1673ffffffffffffffffffffffffffffffffffffffff16815260200190815260200160002060006101000a81548160ff0219169083151502179055506003819080600181540180825580915050600190039060005260206000200160009091909190916101000a81548173ffffffffffffffffffffffffffffffffffffffff021916908373ffffffffffffffffffffffffffffffffffffffff1602179055506001600560008373ffffffffffffffffffffffffffffffffffffffff1673ffffffffffffffffffffffffffffffffffffffff16815260200190815260200160002060006101000a81548160ff02191690831515021790555050505062000621565b600033905090565b60008060009054906101000a900473ffffffffffffffffffffffffffffffffffffffff169050816000806101000a81548173ffffffffffffffffffffffffffffffffffffffff021916908373ffffffffffffffffffffffffffffffffffffffff1602179055508173ffffffffffffffffffffffffffffffffffffffff168173ffffffffffffffffffffffffffffffffffffffff167f8be0079c531659141344cd1fd0a4f28419497f9722a3daafe3b4186f6b6457e060405160405180910390a35050565b828054620002c9906200052c565b90600052602060002090601f016020900481019282620002ed576000855562000339565b82601f106200030857805160ff191683800117855562000339565b8280016001018555821562000339579182015b82811115620003385782518255916020019190600101906200031b565b5b5090506200034891906200034c565b5090565b5b80821115620003675760008160009055506001016200034d565b5090565b6000620003826200037c846200048c565b62000463565b9050828152602081018484840111156200039b57600080fd5b620003a8848285620004f6565b509392505050565b600081519050620003c18162000607565b92915050565b600082601f830112620003d957600080fd5b8151620003eb8482602086016200036b565b91505092915050565b6000806000606084860312156200040a57600080fd5b600084015167ffffffffffffffff8111156200042557600080fd5b6200043386828701620003c7565b93505060206200044686828701620003b0565b92505060406200045986828701620003b0565b9150509250925092565b60006200046f62000482565b90506200047d828262000562565b919050565b6000604051905090565b600067ffffffffffffffff821115620004aa57620004a9620005c7565b5b620004b582620005f6565b9050602081019050919050565b6000620004cf82620004d6565b9050919050565b600073ffffffffffffffffffffffffffffffffffffffff82169050919050565b60005b8381101562000516578082015181840152602081019050620004f9565b8381111562000526576000848401525b50505050565b600060028204905060018216806200054557607f821691505b602082108114156200055c576200055b62000598565b5b50919050565b6200056d82620005f6565b810181811067ffffffffffffffff821117156200058f576200058e620005c7565b5b80604052505050565b7f4e487b7100000000000000000000000000000000000000000000000000000000600052602260045260246000fd5b7f4e487b7100000000000000000000000000000000000000000000000000000000600052604160045260246000fd5b6000601f19601f8301169050919050565b6200061281620004c2565b81146200061e57600080fd5b50565b611a7180620006316000396000f3fe608060405234801561001057600080fd5b50600436106100b45760003560e01c80638da5cb5b116100715780638da5cb5b14610157578063a34dbf2214610175578063c47f002714610191578063f27808f0146101ad578063f2fde38b146101cb578063f3d95cc9146101e7576100b4565b806306fdde03146100b957806336f7ab5e146100d757806336fc9c96146100f55780635cf3b1d0146101135780636c1b852514610131578063715018a61461014d575b600080fd5b6100c1610205565b6040516100ce919061166b565b60405180910390f35b6100df610293565b6040516100ec919061166b565b60405180910390f35b6100fd610321565b60405161010a9190611649565b60405180910390f35b61011b61059a565b6040516101289190611649565b60405180910390f35b61014b60048036038101906101469190611465565b610814565b005b6101556109e1565b005b61015f610a69565b60405161016c919061162e565b60405180910390f35b61018f600480360381019061018a9190611465565b610a92565b005b6101ab60048036038101906101a691906114b7565b610c5f565b005b6101b5610c79565b6040516101c29190611649565b60405180910390f35b6101e560048036038101906101e09190611465565b610ef2565b005b6101ef610fea565b6040516101fc9190611649565b60405180910390f35b6001805461021290611822565b80601f016020809104026020016040519081016040528092919081815260200182805461023e90611822565b801561028b5780601f106102605761010080835404028352916020019161028b565b820191906000526020600020905b81548152906001019060200180831161026e57829003601f168201915b505050505081565b600280546102a090611822565b80601f01602080910402602001604051908101604052809291908181526020018280546102cc90611822565b80156103195780601f106102ee57610100808354040283529160200191610319565b820191906000526020600020905b8154815290600101906020018083116102fc57829003601f168201915b505050505081565b606060008060048054905067ffffffffffffffff81111561036b577f4e487b7100000000000000000000000000000000000000000000000000000000600052604160045260246000fd5b6040519080825280602002602001820160405280156103995781602001602082028036833780820191505090505b5090506000805b60048054905081101561059057600481815481106103e7577f4e487b7100000000000000000000000000000000000000000000000000000000600052603260045260246000fd5b9060005260206000200160009054906101000a900473ffffffffffffffffffffffffffffffffffffffff1693508373ffffffffffffffffffffffffffffffffffffffff166322f3e2d46040518163ffffffff1660e01b815260040160206040518083038186803b15801561045a57600080fd5b505afa15801561046e573d6000803e3d6000fd5b505050506040513d601f19601f82011682018060405250810190610492919061148e565b61057d57600381815481106104d0577f4e487b7100000000000000000000000000000000000000000000000000000000600052603260045260246000fd5b9060005260206000200160009054906101000a900473ffffffffffffffffffffffffffffffffffffffff16838381518110610534577f4e487b7100000000000000000000000000000000000000000000000000000000600052603260045260246000fd5b602002602001019073ffffffffffffffffffffffffffffffffffffffff16908173ffffffffffffffffffffffffffffffffffffffff1681525050818061057990611885565b9250505b808061058890611885565b9150506103a0565b5081935050505090565b606060008060038054905067ffffffffffffffff8111156105e4577f4e487b7100000000000000000000000000000000000000000000000000000000600052604160045260246000fd5b6040519080825280602002602001820160405280156106125781602001602082028036833780820191505090505b5090506000805b60038054905081101561080a5760038181548110610660577f4e487b7100000000000000000000000000000000000000000000000000000000600052603260045260246000fd5b9060005260206000200160009054906101000a900473ffffffffffffffffffffffffffffffffffffffff1693508373ffffffffffffffffffffffffffffffffffffffff166322f3e2d46040518163ffffffff1660e01b815260040160206040518083038186803b1580156106d357600080fd5b505afa1580156106e7573d6000803e3d6000fd5b505050506040513d601f19601f8201168201806040525081019061070b919061148e565b156107f7576003818154811061074a577f4e487b7100000000000000000000000000000000000000000000000000000000600052603260045260246000fd5b9060005260206000200160009054906101000a900473ffffffffffffffffffffffffffffffffffffffff168383815181106107ae577f4e487b7100000000000000000000000000000000000000000000000000000000600052603260045260246000fd5b602002602001019073ffffffffffffffffffffffffffffffffffffffff16908173ffffffffffffffffffffffffffffffffffffffff168152505081806107f390611885565b9250505b808061080290611885565b915050610619565b5081935050505090565b61081c611264565b73ffffffffffffffffffffffffffffffffffffffff1661083a610a69565b73ffffffffffffffffffffffffffffffffffffffff1614610890576040517f08c379a0000000000000000000000000000000000000000000000000000000008152600401610887906116ad565b60405180910390fd5b60001515600560008373ffffffffffffffffffffffffffffffffffffffff1673ffffffffffffffffffffffffffffffffffffffff16815260200190815260200160002060009054906101000a900460ff16151514610923576040517f08c379a000000000000000000000000000000000000000000000000000000000815260040161091a906116cd565b60405180910390fd5b6003819080600181540180825580915050600190039060005260206000200160009091909190916101000a81548173ffffffffffffffffffffffffffffffffffffffff021916908373ffffffffffffffffffffffffffffffffffffffff1602179055506001600560008373ffffffffffffffffffffffffffffffffffffffff1673ffffffffffffffffffffffffffffffffffffffff16815260200190815260200160002060006101000a81548160ff02191690831515021790555050565b6109e9611264565b73ffffffffffffffffffffffffffffffffffffffff16610a07610a69565b73ffffffffffffffffffffffffffffffffffffffff1614610a5d576040517f08c379a0000000000000000000000000000000000000000000000000000000008152600401610a54906116ad565b60405180910390fd5b610a67600061126c565b565b60008060009054906101000a900473ffffffffffffffffffffffffffffffffffffffff16905090565b610a9a611264565b73ffffffffffffffffffffffffffffffffffffffff16610ab8610a69565b73ffffffffffffffffffffffffffffffffffffffff1614610b0e576040517f08c379a0000000000000000000000000000000000000000000000000000000008152600401610b05906116ad565b60405180910390fd5b60001515600660008373ffffffffffffffffffffffffffffffffffffffff1673ffffffffffffffffffffffffffffffffffffffff16815260200190815260200160002060009054906101000a900460ff16151514610ba1576040517f08c379a0000000000000000000000000000000000000000000000000000000008152600401610b98906116cd565b60405180910390fd5b6004819080600181540180825580915050600190039060005260206000200160009091909190916101000a81548173ffffffffffffffffffffffffffffffffffffffff021916908373ffffffffffffffffffffffffffffffffffffffff1602179055506001600660008373ffffffffffffffffffffffffffffffffffffffff1673ffffffffffffffffffffffffffffffffffffffff16815260200190815260200160002060006101000a81548160ff02191690831515021790555050565b8060019080519060200190610c75929190611330565b5050565b606060008060038054905067ffffffffffffffff811115610cc3577f4e487b7100000000000000000000000000000000000000000000000000000000600052604160045260246000fd5b604051908082528060200260200182016040528015610cf15781602001602082028036833780820191505090505b5090506000805b600380549050811015610ee85760038181548110610d3f577f4e487b7100000000000000000000000000000000000000000000000000000000600052603260045260246000fd5b9060005260206000200160009054906101000a900473ffffffffffffffffffffffffffffffffffffffff1693508373ffffffffffffffffffffffffffffffffffffffff166322f3e2d46040518163ffffffff1660e01b815260040160206040518083038186803b158015610db257600080fd5b505afa158015610dc6573d6000803e3d6000fd5b505050506040513d601f19601f82011682018060405250810190610dea919061148e565b610ed55760038181548110610e28577f4e487b7100000000000000000000000000000000000000000000000000000000600052603260045260246000fd5b9060005260206000200160009054906101000a900473ffffffffffffffffffffffffffffffffffffffff16838381518110610e8c577f4e487b7100000000000000000000000000000000000000000000000000000000600052603260045260246000fd5b602002602001019073ffffffffffffffffffffffffffffffffffffffff16908173ffffffffffffffffffffffffffffffffffffffff16815250508180610ed190611885565b9250505b8080610ee090611885565b915050610cf8565b5081935050505090565b610efa611264565b73ffffffffffffffffffffffffffffffffffffffff16610f18610a69565b73ffffffffffffffffffffffffffffffffffffffff1614610f6e576040517f08c379a0000000000000000000000000000000000000000000000000000000008152600401610f65906116ad565b60405180910390fd5b600073ffffffffffffffffffffffffffffffffffffffff168173ffffffffffffffffffffffffffffffffffffffff161415610fde576040517f08c379a0000000000000000000000000000000000000000000000000000000008152600401610fd59061168d565b60405180910390fd5b610fe78161126c565b50565b606060008060048054905067ffffffffffffffff811115611034577f4e487b7100000000000000000000000000000000000000000000000000000000600052604160045260246000fd5b6040519080825280602002602001820160405280156110625781602001602082028036833780820191505090505b5090506000805b60048054905081101561125a57600481815481106110b0577f4e487b7100000000000000000000000000000000000000000000000000000000600052603260045260246000fd5b9060005260206000200160009054906101000a900473ffffffffffffffffffffffffffffffffffffffff1693508373ffffffffffffffffffffffffffffffffffffffff166322f3e2d46040518163ffffffff1660e01b815260040160206040518083038186803b15801561112357600080fd5b505afa158015611137573d6000803e3d6000fd5b505050506040513d601f19601f8201168201806040525081019061115b919061148e565b15611247576004818154811061119a577f4e487b7100000000000000000000000000000000000000000000000000000000600052603260045260246000fd5b9060005260206000200160009054906101000a900473ffffffffffffffffffffffffffffffffffffffff168383815181106111fe577f4e487b7100000000000000000000000000000000000000000000000000000000600052603260045260246000fd5b602002602001019073ffffffffffffffffffffffffffffffffffffffff16908173ffffffffffffffffffffffffffffffffffffffff1681525050818061124390611885565b9250505b808061125290611885565b915050611069565b5081935050505090565b600033905090565b60008060009054906101000a900473ffffffffffffffffffffffffffffffffffffffff169050816000806101000a81548173ffffffffffffffffffffffffffffffffffffffff021916908373ffffffffffffffffffffffffffffffffffffffff1602179055508173ffffffffffffffffffffffffffffffffffffffff168173ffffffffffffffffffffffffffffffffffffffff167f8be0079c531659141344cd1fd0a4f28419497f9722a3daafe3b4186f6b6457e060405160405180910390a35050565b82805461133c90611822565b90600052602060002090601f01602090048101928261135e57600085556113a5565b82601f1061137757805160ff19168380011785556113a5565b828001600101855582156113a5579182015b828111156113a4578251825591602001919060010190611389565b5b5090506113b291906113b6565b5090565b5b808211156113cf5760008160009055506001016113b7565b5090565b60006113e66113e184611712565b6116ed565b9050828152602081018484840111156113fe57600080fd5b6114098482856117e0565b509392505050565b60008135905061142081611a0d565b92915050565b60008151905061143581611a24565b92915050565b600082601f83011261144c57600080fd5b813561145c8482602086016113d3565b91505092915050565b60006020828403121561147757600080fd5b600061148584828501611411565b91505092915050565b6000602082840312156114a057600080fd5b60006114ae84828501611426565b91505092915050565b6000602082840312156114c957600080fd5b600082013567ffffffffffffffff8111156114e357600080fd5b6114ef8482850161143b565b91505092915050565b60006115048383611510565b60208301905092915050565b61151981611798565b82525050565b61152881611798565b82525050565b600061153982611753565b6115438185611776565b935061154e83611743565b8060005b8381101561157f57815161156688826114f8565b975061157183611769565b925050600181019050611552565b5085935050505092915050565b60006115978261175e565b6115a18185611787565b93506115b18185602086016117ef565b6115ba8161195b565b840191505092915050565b60006115d2602683611787565b91506115dd8261196c565b604082019050919050565b60006115f5602083611787565b9150611600826119bb565b602082019050919050565b6000611618601a83611787565b9150611623826119e4565b602082019050919050565b6000602082019050611643600083018461151f565b92915050565b60006020820190508181036000830152611663818461152e565b905092915050565b60006020820190508181036000830152611685818461158c565b905092915050565b600060208201905081810360008301526116a6816115c5565b9050919050565b600060208201905081810360008301526116c6816115e8565b9050919050565b600060208201905081810360008301526116e68161160b565b9050919050565b60006116f7611708565b90506117038282611854565b919050565b6000604051905090565b600067ffffffffffffffff82111561172d5761172c61192c565b5b6117368261195b565b9050602081019050919050565b6000819050602082019050919050565b600081519050919050565b600081519050919050565b6000602082019050919050565b600082825260208201905092915050565b600082825260208201905092915050565b60006117a3826117b6565b9050919050565b60008115159050919050565b600073ffffffffffffffffffffffffffffffffffffffff82169050919050565b6000819050919050565b82818337600083830152505050565b60005b8381101561180d5780820151818401526020810190506117f2565b8381111561181c576000848401525b50505050565b6000600282049050600182168061183a57607f821691505b6020821081141561184e5761184d6118fd565b5b50919050565b61185d8261195b565b810181811067ffffffffffffffff8211171561187c5761187b61192c565b5b80604052505050565b6000611890826117d6565b91507fffffffffffffffffffffffffffffffffffffffffffffffffffffffffffffffff8214156118c3576118c26118ce565b5b600182019050919050565b7f4e487b7100000000000000000000000000000000000000000000000000000000600052601160045260246000fd5b7f4e487b7100000000000000000000000000000000000000000000000000000000600052602260045260246000fd5b7f4e487b7100000000000000000000000000000000000000000000000000000000600052604160045260246000fd5b6000601f19601f8301169050919050565b7f4f776e61626c653a206e6577206f776e657220697320746865207a65726f206160008201527f6464726573730000000000000000000000000000000000000000000000000000602082015250565b7f4f776e61626c653a2063616c6c6572206973206e6f7420746865206f776e6572600082015250565b7f534c206164647265737320616c72656164792073746f7265642e000000000000600082015250565b611a1681611798565b8114611a2157600080fd5b50565b611a2d816117aa565b8114611a3857600080fd5b5056fea26469706673582212202ce44aab48de912bb50c5ce75065d9023308fb9900b4a3a5609672fca8c5ef8164736f6c63430008040033",
  "linkReferences": {},
  "deployedLinkReferences": {}
}