{
  "_format": "hh-sol-artifact-1",
  "contractName": "ManagerContract",
  "sourceName": "contracts/ManagerContract.sol",
  "abi": [
    {
      "inputs": [
        {
          "internalType": "address",
          "name": "_aggregator",
          "type": "address"
        },
        {
          "internalType": "address",
          "name": "_royaltyComputation",
          "type": "address"
        },
        {
          "internalType": "address",
          "name": "_licensee",
          "type": "address"
        },
        {
          "internalType": "address",
          "name": "_licensor",
          "type": "address"
        },
        {
          "internalType": "uint256",
          "name": "_expirationDate",
          "type": "uint256"
        }
      ],
      "stateMutability": "nonpayable",
      "type": "constructor"
    },
    {
      "anonymous": false,
      "inputs": [
        {
          "indexed": true,
          "internalType": "address",
          "name": "previousOwner",
          "type": "address"
        },
        {
          "indexed": true,
          "internalType": "address",
          "name": "newOwner",
          "type": "address"
        }
      ],
      "name": "OwnershipTransferred",
      "type": "event"
    },
    {
      "inputs": [],
      "name": "active",
      "outputs": [
        {
          "internalType": "bool",
          "name": "",
          "type": "bool"
        }
      ],
      "stateMutability": "view",
      "type": "function"
    },
    {
      "inputs": [],
      "name": "creationDate",
      "outputs": [
        {
          "internalType": "uint256",
          "name": "",
          "type": "uint256"
        }
      ],
      "stateMutability": "view",
      "type": "function"
    },
    {
      "inputs": [],
      "name": "expirationDate",
      "outputs": [
        {
          "internalType": "uint256",
          "name": "",
          "type": "uint256"
        }
      ],
      "stateMutability": "view",
      "type": "function"
    },
    {
      "inputs": [],
      "name": "getLicensee",
      "outputs": [
        {
          "internalType": "address",
          "name": "",
          "type": "address"
        }
      ],
      "stateMutability": "view",
      "type": "function"
    },
    {
      "inputs": [],
      "name": "getLicensor",
      "outputs": [
        {
          "internalType": "address",
          "name": "",
          "type": "address"
        }
      ],
      "stateMutability": "view",
      "type": "function"
    },
    {
      "inputs": [],
      "name": "getRoyaltyHistoryLegacyDapp",
      "outputs": [
        {
          "internalType": "uint256[]",
          "name": "",
          "type": "uint256[]"
        }
      ],
      "stateMutability": "view",
      "type": "function"
    },
    {
      "inputs": [],
      "name": "isActive",
      "outputs": [
        {
          "internalType": "bool",
          "name": "",
          "type": "bool"
        }
      ],
      "stateMutability": "view",
      "type": "function"
    },
    {
      "inputs": [],
      "name": "licensee",
      "outputs": [
        {
          "internalType": "address",
          "name": "",
          "type": "address"
        }
      ],
      "stateMutability": "view",
      "type": "function"
    },
    {
      "inputs": [],
      "name": "licensor",
      "outputs": [
        {
          "internalType": "address",
          "name": "",
          "type": "address"
        }
      ],
      "stateMutability": "view",
      "type": "function"
    },
    {
      "inputs": [],
      "name": "owner",
      "outputs": [
        {
          "internalType": "address",
          "name": "",
          "type": "address"
        }
      ],
      "stateMutability": "view",
      "type": "function"
    },
    {
      "inputs": [],
      "name": "renounceOwnership",
      "outputs": [],
      "stateMutability": "nonpayable",
      "type": "function"
    },
    {
      "inputs": [
        {
          "internalType": "address",
          "name": "_licensee",
          "type": "address"
        }
      ],
      "name": "setLicensee",
      "outputs": [],
      "stateMutability": "nonpayable",
      "type": "function"
    },
    {
      "inputs": [],
      "name": "terminateSL",
      "outputs": [],
      "stateMutability": "nonpayable",
      "type": "function"
    },
    {
      "inputs": [
        {
          "internalType": "address",
          "name": "newOwner",
          "type": "address"
        }
      ],
      "name": "transferOwnership",
      "outputs": [],
      "stateMutability": "nonpayable",
      "type": "function"
    },
    {
      "inputs": [
        {
          "internalType": "address",
          "name": "_aggregator",
          "type": "address"
        }
      ],
      "name": "updateAggregator",
      "outputs": [],
      "stateMutability": "nonpayable",
      "type": "function"
    },
    {
      "inputs": [
        {
          "internalType": "address",
          "name": "_royaltyComputation",
          "type": "address"
        }
      ],
      "name": "updateRoyaltyComputation",
      "outputs": [],
      "stateMutability": "nonpayable",
      "type": "function"
    }
  ],
  "bytecode": "0x60a06040523480156200001157600080fd5b50604051620013b1380380620013b183398181016040528101906200003791906200028a565b620000576200004b6200019060201b60201c565b6200019860201b60201c565b84600160006101000a81548173ffffffffffffffffffffffffffffffffffffffff021916908373ffffffffffffffffffffffffffffffffffffffff16021790555083600260006101000a81548173ffffffffffffffffffffffffffffffffffffffff021916908373ffffffffffffffffffffffffffffffffffffffff16021790555081600460006101000a81548173ffffffffffffffffffffffffffffffffffffffff021916908373ffffffffffffffffffffffffffffffffffffffff16021790555082600360006101000a81548173ffffffffffffffffffffffffffffffffffffffff021916908373ffffffffffffffffffffffffffffffffffffffff16021790555042608081815250506001600460146101000a81548160ff0219169083151502179055508060058190555050505050506200037e565b600033905090565b60008060009054906101000a900473ffffffffffffffffffffffffffffffffffffffff169050816000806101000a81548173ffffffffffffffffffffffffffffffffffffffff021916908373ffffffffffffffffffffffffffffffffffffffff1602179055508173ffffffffffffffffffffffffffffffffffffffff168173ffffffffffffffffffffffffffffffffffffffff167f8be0079c531659141344cd1fd0a4f28419497f9722a3daafe3b4186f6b6457e060405160405180910390a35050565b6000815190506200026d816200034a565b92915050565b600081519050620002848162000364565b92915050565b600080600080600060a08688031215620002a357600080fd5b6000620002b3888289016200025c565b9550506020620002c6888289016200025c565b9450506040620002d9888289016200025c565b9350506060620002ec888289016200025c565b9250506080620002ff8882890162000273565b9150509295509295909350565b6000620003198262000320565b9050919050565b600073ffffffffffffffffffffffffffffffffffffffff82169050919050565b6000819050919050565b62000355816200030c565b81146200036157600080fd5b50565b6200036f8162000340565b81146200037b57600080fd5b50565b6080516110176200039a60003960006102f001526110176000f3fe608060405234801561001057600080fd5b50600436106101005760003560e01c80638da5cb5b11610097578063a1911da111610066578063a1911da114610241578063b6bed0631461025f578063bca9a0521461027d578063f2fde38b1461029957610100565b80638da5cb5b146101cd5780638f620487146101eb5780639319fab1146102095780639fe4ee471461022557610100565b80634ecfbc6d116100d35780634ecfbc6d1461017d5780635e3044cb146101875780635f840e61146101a5578063715018a6146101c357610100565b80630144f9891461010557806302fb0c5e1461012357806305b344101461014157806322f3e2d41461015f575b600080fd5b61010d6102b5565b60405161011a9190610d0b565b60405180910390f35b61012b6102db565b6040516101389190610d48565b60405180910390f35b6101496102ee565b6040516101569190610dc3565b60405180910390f35b610167610312565b6040516101749190610d48565b60405180910390f35b610185610329565b005b61018f61038a565b60405161019c9190610d0b565b60405180910390f35b6101ad6103b0565b6040516101ba9190610d0b565b60405180910390f35b6101cb6103da565b005b6101d5610462565b6040516101e29190610d0b565b60405180910390f35b6101f361048b565b6040516102009190610dc3565b60405180910390f35b610223600480360381019061021e9190610bc7565b610491565b005b61023f600480360381019061023a9190610bc7565b610551565b005b610249610611565b6040516102569190610d26565b60405180910390f35b610267610980565b6040516102749190610d0b565b60405180910390f35b61029760048036038101906102929190610bc7565b6109aa565b005b6102b360048036038101906102ae9190610bc7565b6109ee565b005b600460009054906101000a900473ffffffffffffffffffffffffffffffffffffffff1681565b600460149054906101000a900460ff1681565b7f000000000000000000000000000000000000000000000000000000000000000081565b6000600460149054906101000a900460ff16905090565b600554421161036d576040517f08c379a000000000000000000000000000000000000000000000000000000000815260040161036490610d63565b60405180910390fd5b6000600460146101000a81548160ff021916908315150217905550565b600360009054906101000a900473ffffffffffffffffffffffffffffffffffffffff1681565b6000600460009054906101000a900473ffffffffffffffffffffffffffffffffffffffff16905090565b6103e2610ae6565b73ffffffffffffffffffffffffffffffffffffffff16610400610462565b73ffffffffffffffffffffffffffffffffffffffff1614610456576040517f08c379a000000000000000000000000000000000000000000000000000000000815260040161044d90610da3565b60405180910390fd5b6104606000610aee565b565b60008060009054906101000a900473ffffffffffffffffffffffffffffffffffffffff16905090565b60055481565b610499610ae6565b73ffffffffffffffffffffffffffffffffffffffff166104b7610462565b73ffffffffffffffffffffffffffffffffffffffff161461050d576040517f08c379a000000000000000000000000000000000000000000000000000000000815260040161050490610da3565b60405180910390fd5b80600260006101000a81548173ffffffffffffffffffffffffffffffffffffffff021916908373ffffffffffffffffffffffffffffffffffffffff16021790555050565b610559610ae6565b73ffffffffffffffffffffffffffffffffffffffff16610577610462565b73ffffffffffffffffffffffffffffffffffffffff16146105cd576040517f08c379a00000000000000000000000000000000000000000000000000000000081526004016105c490610da3565b60405180910390fd5b80600160006101000a81548173ffffffffffffffffffffffffffffffffffffffff021916908373ffffffffffffffffffffffffffffffffffffffff16021790555050565b60606000600967ffffffffffffffff811115610656577f4e487b7100000000000000000000000000000000000000000000000000000000600052604160045260246000fd5b6040519080825280602002602001820160405280156106845781602001602082028036833780820191505090505b5090506005546103e86106979190610e28565b816000815181106106d1577f4e487b7100000000000000000000000000000000000000000000000000000000600052603260045260246000fd5b602002602001018181525050600554426106eb9190610e28565b81600181518110610725577f4e487b7100000000000000000000000000000000000000000000000000000000600052603260045260246000fd5b60200260200101818152505060008160028151811061076d577f4e487b7100000000000000000000000000000000000000000000000000000000600052603260045260246000fd5b6020026020010181815250506005546109c46107899190610e28565b816003815181106107c3577f4e487b7100000000000000000000000000000000000000000000000000000000600052603260045260246000fd5b60200260200101818152505060055462989680426107e19190610e7e565b6107eb9190610e28565b81600481518110610825577f4e487b7100000000000000000000000000000000000000000000000000000000600052603260045260246000fd5b60200260200101818152505060018160058151811061086d577f4e487b7100000000000000000000000000000000000000000000000000000000600052603260045260246000fd5b6020026020010181815250506005546101f46108899190610e28565b816006815181106108c3577f4e487b7100000000000000000000000000000000000000000000000000000000600052603260045260246000fd5b602002602001018181525050600554621e8480426108e19190610e7e565b6108eb9190610e7e565b81600781518110610925577f4e487b7100000000000000000000000000000000000000000000000000000000600052603260045260246000fd5b60200260200101818152505060018160088151811061096d577f4e487b7100000000000000000000000000000000000000000000000000000000600052603260045260246000fd5b6020026020010181815250508091505090565b6000600360009054906101000a900473ffffffffffffffffffffffffffffffffffffffff16905090565b80600360006101000a81548173ffffffffffffffffffffffffffffffffffffffff021916908373ffffffffffffffffffffffffffffffffffffffff16021790555050565b6109f6610ae6565b73ffffffffffffffffffffffffffffffffffffffff16610a14610462565b73ffffffffffffffffffffffffffffffffffffffff1614610a6a576040517f08c379a0000000000000000000000000000000000000000000000000000000008152600401610a6190610da3565b60405180910390fd5b600073ffffffffffffffffffffffffffffffffffffffff168173ffffffffffffffffffffffffffffffffffffffff161415610ada576040517f08c379a0000000000000000000000000000000000000000000000000000000008152600401610ad190610d83565b60405180910390fd5b610ae381610aee565b50565b600033905090565b60008060009054906101000a900473ffffffffffffffffffffffffffffffffffffffff169050816000806101000a81548173ffffffffffffffffffffffffffffffffffffffff021916908373ffffffffffffffffffffffffffffffffffffffff1602179055508173ffffffffffffffffffffffffffffffffffffffff168173ffffffffffffffffffffffffffffffffffffffff167f8be0079c531659141344cd1fd0a4f28419497f9722a3daafe3b4186f6b6457e060405160405180910390a35050565b600081359050610bc181610fca565b92915050565b600060208284031215610bd957600080fd5b6000610be784828501610bb2565b91505092915050565b6000610bfc8383610ced565b60208301905092915050565b610c1181610eb2565b82525050565b6000610c2282610dee565b610c2c8185610e06565b9350610c3783610dde565b8060005b83811015610c68578151610c4f8882610bf0565b9750610c5a83610df9565b925050600181019050610c3b565b5085935050505092915050565b610c7e81610ec4565b82525050565b6000610c91601383610e17565b9150610c9c82610f29565b602082019050919050565b6000610cb4602683610e17565b9150610cbf82610f52565b604082019050919050565b6000610cd7602083610e17565b9150610ce282610fa1565b602082019050919050565b610cf681610ef0565b82525050565b610d0581610ef0565b82525050565b6000602082019050610d206000830184610c08565b92915050565b60006020820190508181036000830152610d408184610c17565b905092915050565b6000602082019050610d5d6000830184610c75565b92915050565b60006020820190508181036000830152610d7c81610c84565b9050919050565b60006020820190508181036000830152610d9c81610ca7565b9050919050565b60006020820190508181036000830152610dbc81610cca565b9050919050565b6000602082019050610dd86000830184610cfc565b92915050565b6000819050602082019050919050565b600081519050919050565b6000602082019050919050565b600082825260208201905092915050565b600082825260208201905092915050565b6000610e3382610ef0565b9150610e3e83610ef0565b9250827fffffffffffffffffffffffffffffffffffffffffffffffffffffffffffffffff03821115610e7357610e72610efa565b5b828201905092915050565b6000610e8982610ef0565b9150610e9483610ef0565b925082821015610ea757610ea6610efa565b5b828203905092915050565b6000610ebd82610ed0565b9050919050565b60008115159050919050565b600073ffffffffffffffffffffffffffffffffffffffff82169050919050565b6000819050919050565b7f4e487b7100000000000000000000000000000000000000000000000000000000600052601160045260246000fd5b7f534c206e6f742065787069726564207965742100000000000000000000000000600082015250565b7f4f776e61626c653a206e6577206f776e657220697320746865207a65726f206160008201527f6464726573730000000000000000000000000000000000000000000000000000602082015250565b7f4f776e61626c653a2063616c6c6572206973206e6f7420746865206f776e6572600082015250565b610fd381610eb2565b8114610fde57600080fd5b5056fea2646970667358221220958aeab2cb4828fa1d6269111d56f1607f36e916216f6d1f1253117b951a6ccf64736f6c63430008040033",
  "linkReferences": {},
  "deployedLinkReferences": {}
}